:100000000C9434000C9451000C9451000C94510049
:100010000C9451000C9451000C9451000C9451001C
:100020000C9451000C9451000C9451000C9451000C
:100030000C9451000C9451000C9451000C945100FC
:100040000C9451000C9451000C94A4000C94510099
:100050000C9451000C9451000C9451000C945100DC
:100060000C9451000C94510011241FBECFEFD8E026
:10007000DEBFCDBF11E0A0E0B1E0E2EBF1E002C0F5
:1000800005900D92A031B107D9F721E0A0E1B1E0D0
:1000900001C01D92A131B207E1F70E948F000C94BC
:1000A000D7000C9400008AB18E7F8AB98AB1826031
:1000B0008AB9E0ECF0E01082808182608083E1EC1C
:1000C000F0E01082808180688083808180618083FD
:1000D000808188608083E2ECF0E0108286E080839B
:1000E0008FEC90E09093C5008093C40008959091A8
:1000F000C00095FFFCCF8093C6000895AC0120E0BE
:1001000007C09091C00095FFFCCF3093C6002F5FD1
:10011000FA01E20FF11D30813111F3CF0895F89407
:1001200084B18FEF84B98AB1806C8AB90E94530080
:10013000789480E091E00E947E0085E30E94770041
:10014000FFCF90E0C09708951F920F920FB60F92C5
:1001500011242F933F934F935F936F937F938F93CC
:100160009F93AF93BF93EF93FF938091C6008093CB
:1001700010018091C00085FFFCCF80911001809319
:10018000C600809110010E94A10085B9FF91EF91F6
:10019000BF91AF919F918F917F916F915F914F919F
:1001A0003F912F910F900FBE0F901F901895F894CC
:0201B000FFCF7F
:1001B2000A20486F6C61206D756E646F21200A0001
:00000001FF
